:020000040000fa
:080000000002040000000000f2
:020000040000fa
:040008006c04000084
:020000040000fa
:04000c00c20300002b
:020000040000fa
:04001000e203000007
:020000040000fa
:04001400ac04000038
:020000040000fa
:040018008c04000054
:020000040000fa
:04001c0014050000c7
:020000040000fa
:0400200002040000d6
:020000040000fa
:0400240014050000bf
:020000040000fa
:0400280014050000bb
:020000040000fa
:04002c00f4040000d8
:020000040000fa
:0400300014050000b3
:020000040000fa
:0400340014050000af
:020000040000fa
:0400380014050000ab
:020000040000fa
:04003c0014050000a7
:020000040000fa
:0400400014050000a3
:020000040000fa
:04004400140500009f
:020000040000fa
:04004800140500009b
:020000040000fa
:04004c001405000097
:020000040000fa
:040050001405000093
:020000040000fa
:04005400140500008f
:020000040000fa
:04005800140500008b
:020000040000fa
:04005c001405000087
:020000040000fa
:040060001405000083
:020000040000fa
:04006400140500007f
:020000040000fa
:04006800140500007b
:020000040000fa
:04006c001405000077
:020000040000fa
:040070001405000073
:020000040000fa
:04007400140500006f
:020000040000fa
:04007800140500006b
:020000040000fa
:04007c001405000067
:020000040000fa
:040080001405000063
:020000040000fa
:04008400140500005f
:020000040000fa
:04008800140500005b
:020000040000fa
:04008c001405000057
:020000040000fa
:040090001405000053
:020000040000fa
:04009400140500004f
:020000040000fa
:04009800140500004b
:020000040000fa
:04009c001405000047
:020000040000fa
:0400a0001405000043
:020000040000fa
:0400a400140500003f
:020000040000fa
:0400a800140500003b
:020000040000fa
:0400ac001405000037
:020000040000fa
:0400b0001405000033
:020000040000fa
:0400b400140500002f
:020000040000fa
:0400b800140500002b
:020000040000fa
:0400bc001405000027
:020000040000fa
:0400c0001405000023
:020000040000fa
:0400c400140500001f
:020000040000fa
:0400c800140500001b
:020000040000fa
:0400cc001405000017
:020000040000fa
:0400d0001405000013
:020000040000fa
:0400d400140500000f
:020000040000fa
:0400d800140500000b
:020000040000fa
:0400dc00ce0400004e
:020000040000fa
:0400e0001405000003
:020000040000fa
:0400e40014050000ff
:020000040000fa
:0400e80014050000fb
:020000040000fa
:0400ec0014050000f7
:020000040000fa
:0400f00014050000f3
:020000040000fa
:0400f40014050000ef
:020000040000fa
:0400f80014050000eb
:020000040000fa
:0400fc0014050000e7
:020000040000fa
:0401000014050000e2
:020000040000fa
:0401040014050000de
:020000040000fa
:0401080014050000da
:020000040000fa
:04010c0014050000d6
:020000040000fa
:0401100014050000d2
:020000040000fa
:0401140014050000ce
:020000040000fa
:0401180014050000ca
:020000040000fa
:04011c0014050000c6
:020000040000fa
:0401200014050000c2
:020000040000fa
:0401240014050000be
:020000040000fa
:0401280014050000ba
:020000040000fa
:04012c0014050000b6
:020000040000fa
:0401300014050000b2
:020000040000fa
:0401340014050000ae
:020000040000fa
:0401380014050000aa
:020000040000fa
:04013c0014050000a6
:020000040000fa
:0401400014050000a2
:020000040000fa
:04014400140500009e
:020000040000fa
:04014800140500009a
:020000040000fa
:04014c001405000096
:020000040000fa
:040150001405000092
:020000040000fa
:04015400140500008e
:020000040000fa
:04015800140500008a
:020000040000fa
:04015c001405000086
:020000040000fa
:040160001405000082
:020000040000fa
:04016400140500007e
:020000040000fa
:04016800140500007a
:020000040000fa
:04016c001405000076
:020000040000fa
:040170001405000072
:020000040000fa
:04017400140500006e
:020000040000fa
:04017800140500006a
:020000040000fa
:04017c001405000066
:020000040000fa
:040180001405000062
:020000040000fa
:04018400140500005e
:020000040000fa
:04018800140500005a
:020000040000fa
:04018c001405000056
:020000040000fa
:040190001405000052
:020000040000fa
:04019400140500004e
:020000040000fa
:04019800140500004a
:020000040000fa
:04019c001405000046
:020000040000fa
:0401a0001405000042
:020000040000fa
:0401a400140500003e
:020000040000fa
:0401a800140500003a
:020000040000fa
:0401ac001405000036
:020000040000fa
:0401b0001405000032
:020000040000fa
:0401b400140500002e
:020000040000fa
:0401b800140500002a
:020000040000fa
:0401bc001405000026
:020000040000fa
:0401c0001405000022
:020000040000fa
:0401c400140500001e
:020000040000fa
:0401c800140500001a
:020000040000fa
:0401cc001405000016
:020000040000fa
:0401d0001405000012
:020000040000fa
:0401d400140500000e
:020000040000fa
:0401d800140500000a
:020000040000fa
:0401dc001405000006
:020000040000fa
:0401e0001405000002
:020000040000fa
:0401e40014050000fe
:020000040000fa
:0401e80014050000fa
:020000040000fa
:0401ec0014050000f6
:020000040000fa
:0401f00014050000f2
:020000040000fa
:0401f40014050000ee
:020000040000fa
:0401f80014050000ea
:020000040000fa
:0401fc0014050000e6
:020000040000fa
:0402000014050000e1
:020000040000fa
:0402040014050000dd
:020000040000fa
:0402080014050000d9
:020000040000fa
:04020c0014050000d5
:020000040000fa
:0402100014050000d1
:020000040000fa
:0402140014050000cd
:020000040000fa
:0402180014050000c9
:020000040000fa
:04021c0014050000c5
:020000040000fa
:0402200014050000c1
:020000040000fa
:0402240014050000bd
:020000040000fa
:0402280014050000b9
:020000040000fa
:04022c0014050000b5
:020000040000fa
:0402300014050000b1
:020000040000fa
:0402340014050000ad
:020000040000fa
:0402380014050000a9
:020000040000fa
:04023c0014050000a5
:020000040000fa
:0402400014050000a1
:020000040000fa
:04024400140500009d
:020000040000fa
:040248001405000099
:020000040000fa
:04024c001405000095
:020000040000fa
:040250001405000091
:020000040000fa
:04025400140500008d
:020000040000fa
:040258001405000089
:020000040000fa
:04025c001405000085
:020000040000fa
:040260001405000081
:020000040000fa
:04026400140500007d
:020000040000fa
:040268001405000079
:020000040000fa
:04026c001405000075
:020000040000fa
:040270001405000071
:020000040000fa
:04027400140500006d
:020000040000fa
:040278001405000069
:020000040000fa
:04027c001405000065
:020000040000fa
:040280001405000061
:020000040000fa
:04028400140500005d
:020000040000fa
:040288001405000059
:020000040000fa
:04028c001405000055
:020000040000fa
:040290001405000051
:020000040000fa
:04029400140500004d
:020000040000fa
:040298001405000049
:020000040000fa
:04029c001405000045
:020000040000fa
:0402a0001405000041
:020000040000fa
:0402a400140500003d
:020000040000fa
:0402a8001405000039
:020000040000fa
:0402ac001405000035
:020000040000fa
:0402b0001405000031
:020000040000fa
:0402b400140500002d
:020000040000fa
:0402b8001405000029
:020000040000fa
:0402bc001405000025
:020000040000fa
:0402c0001405000021
:020000040000fa
:0402c400140500001d
:020000040000fa
:0402c8001405000019
:020000040000fa
:0402cc001405000015
:020000040000fa
:0402d0001405000011
:020000040000fa
:0402d400140500000d
:020000040000fa
:0402d8001405000009
:020000040000fa
:0402dc001405000005
:020000040000fa
:0402e0001405000001
:020000040000fa
:0402e40014050000fd
:020000040000fa
:0402e80014050000f9
:020000040000fa
:0402ec0014050000f5
:020000040000fa
:0402f00014050000f1
:020000040000fa
:0402f40014050000ed
:020000040000fa
:0402f80014050000e9
:020000040000fa
:0402fc0014050000e5
:020000040000fa
:0403000014050000e0
:020000040000fa
:0403040014050000dc
:020000040000fa
:0403080014050000d8
:020000040000fa
:04030c0014050000d4
:020000040000fa
:0403100014050000d0
:020000040000fa
:0403140014050000cc
:020000040000fa
:0403180014050000c8
:020000040000fa
:04031c0014050000c4
:020000040000fa
:0403200014050000c0
:020000040000fa
:10040000cf0221000eff27000e018800000020000f
:100410000000e000020032000001200020028800fd
:1004200014000700820107000000e00003003a000a
:10043000e09b2000010020000200370000002000a7
:1004400001002000810f70004220ae000f00070065
:10045000000020000000e0004220ae00000002008a
:10046000000000004c080200000000000040da001c
:100470000000fe00400120000000e0000200320009
:10048000002020009001880000000600a1028800e2
:10049000800478000000eb001f003700e284440075
:1004a00054a0b4009905ba00e284440054a0b400fa
:1004b0009906ba00e284440054a0b4000006eb00a0
:1004c000476fde00fd07b200ae018800636ce100fb
:1004d00003003a000ad801000000eb000e003700cc
:1004e000606ce10008003a00004deb000a05e800ee
:1004f000020039003420ec000af0a0008b05e9006e
:10050000f9ff3e00040037006168e100010032009d
:100510000086eb000b00070019c7ba001905ba00e6
:100520000e04e00003003a000a00e000dbff3a009e
:1005300000000600fe07b200ae0288008a047800c0
:10054000f5ff37000cd0a300e20f4d001c003b006c
:1005500089027800354dba000a05e800020039002a
:100560003420ec000af0a0008b05e9000f003200f7
:10057000254dba000a05e800020039003420ec00dd
:100580000af0a0008b05e900080032000c00e00032
:100590000600320015cdba000a05e8000200390055
:1005a0003420ec000af0a0008b05e9008984e80003
:1005b00054a0b4000b00e000e2ff3a000000060087
:1005c0009902ba00055d78008b05e900f7ff32005b
:1005d000c82ade00055d78008b05e900f3ff3200d4
:1005e0000c00e000f1ff320019ddba00eeff370029
:1005f0006100e10001003200100005005400f80025
:1006000050102000a002880000f927001000ba0056
:100610005400f9000700260000f0a6008703d1006f
:100620000703780001c4fe000003eb000120200056
:1006300091018800a19d2800111303008703e900a0
:10064000fdff3a0000f0a7000000050000f0a00048
:1006500080c4fe0086037800f3ff37000408200002
:10066000010037000002eb006100e10001003200f0
:10067000100005003200f8003400f8008102780014
:10068000930188003200be000100e0000c0032003f
:100690000470a70000f0a00032037800c733de002a
:1006a000848343004220af008703e800a70188004d
:1006b000f607b2007f30e100040032002000200085
:1006c0003400f9003200f900000006008100e90062
:1006d0000500e00003003a00018009003210030029
:1006e000e8ff37000180090032900300d561ae00b9
:1006f000e4ff370030002000f1ff370050052000f4
:10070000b00e8800a00a2000b00e8800d3e1a80037
:100710000000060050052000b00e8800a00a20004e
:10072000b00e8800d3e1a900000006003a070400db
:10073000000000008e0804000000000054070400c0
:10074000000000006a070400000000007a070400af
:10075000000000008607040000000000900704006d
:100760000000000040070400000000004a070400e9
:10077000000000009c07040000000000ba0704000d
:10078000000000003600f800809fbe00829fbe007f
:10079000849fbe00869fbe000000fa00c068a900ca
:1007a00020002000d90207000080fa004f03be009d
:1007b0004f02be004f01be004f00be003600f900e0
:1007c000004006003600f800809fbe00829fbe00f9
:1007d000849fbe00869fbe000000fa00c608a900e4
:1007e00070002000c90207000080fa004f03be001d
:1007f0004f02be004f01be004f00be003600f900a0
:10080000004006003600f800809fbe00829fbe00b8
:10081000849fbe00869fbe000000fa002046800034
:10082000700060000000e00003003200c488a900ee
:10083000a0002000b502070021468000000420002f
:10084000008060000000e00003003200c4c8a9007e
:10085000e0002000ad0207002146800000022000d9
:10086000008060000000e00003003200c4a8a9007e
:1008700090002000a5020700214680000010200003
:10088000008060000000e00003003200c508a900fd
:10089000c00020009d0207002146800000202000ab
:1008a000008060000000e00003003200c528a900bd
:1008b000d000200095020700204680006100600003
:1008c0000000e00003003200c408a900b0002000ce
:1008d0008e020700ffff37003600f800809fbe0041
:1008e000829fbe00849fbe00869fbe000000fa006b
:1008f000c028a9000000eb00840207000080fa0075
:100900004f03be004f02be004f01be004f00be00ad
:100910003600f900004006003600f800809fbe0057
:10092000829fbe00849fbe00869fbe000000fa002a
:10093000c088a90030002000740207000080fa007f
:100940004f03be004f02be004f01be004f00be006d
:100950003600f900004006003600f800809fbe0017
:10096000829fbe00849fbe00869fbe000000fa00ea
:100970006d020700c048a9001000200063020700b4
:100980000080fa004f03be004f02be004f01be00c0
:100990004f00be003600f900004006003600f800a7
:1009a000809fbe00829fbe00849fbe00869fbe00c7
:1009b0000000fa00308080000000e00002003200f9
:1009c000308080000000010005a8a9000080fa0026
:1009d0004f03be004f02be004f01be004f00be00dd
:1009e0003600f900004006003600f800809fbe0087
:1009f000829fbe00849fbe00869fbe000000fa005a
:100a000050808000000001000028a9000080fa004a
:100a10004f03be004f02be004f01be004f00be009c
:100a20003600f900004006000040da000000fe0039
:040a300000000500bd
:020000040000fa
:100a3400540700006a0700007a07000086070000d8
:100a440090070000400700004a0700009c070000d0
:080a5400ba07000000000000d9
:020000040000fa
:100a5c000400fa00100798000040eb00004f7800eb
:100a6c001e0090000000e00002003d0010c0b3002a
:100a7c00004f78001e4078000080fa00000006004d
:100a8c000400fa00100798000040eb00004f7800bb
:100a9c009e00900000002400008060000000e00038
:100aac000200320010c0b300004f78001e407800e6
:100abc000080fa00000006000400fa0010079800fd
:100acc000040eb00004f78009e00900000202000ba
:100adc00008060000000e0000200320010c0b30093
:100aec00004f78001e4078000080fa0000000600dd
:100afc000400fa00100798000040eb00004f78004b
:100b0c009e00900000082000008060000000e000c3
:100b1c000200320010c0b300004f78001e40780075
:100b2c000080fa00000006000400fa00100798008c
:100b3c000040eb00004f78009e0090000004200065
:100b4c00008060000000e0000200320010c0b30022
:100b5c00004f78001e4078000080fa00000006006c
:100b6c000400fa00100798000040eb00004f7800da
:100b7c001e009000700060000000e00002003200d7
:100b8c0010c0b300004f78001e4078000080fa00bf
:100b9c00000006000200fa00000f78009e80ea00b8
:100bac00007c800000806000007c88000080fa00df
:100bbc00000006000000fa00007c80000080fa00b3
:100bcc00000006000200fa00faff0700000f780090
:100bdc001e0078009eff07000004e00002003200b7
:100bec0000002800ebff07001e007800a4ff0700a0
:100bfc000004e0000200320000002400e5ff0700c2
:100c0c001e007800acff07000004e0000200320078
:100c1c0000202000dfff07001e007800b4ff070053
:100c2c000004e0000200320000082000d9ff070099
:100c3c001e007800bcff07000004e0000200320038
:100c4c0000042000d3ff07001e007800c4ff07003b
:100c5c000004e0000200320000012000cdff07007c
:100c6c000080fa00000006000000fa00802fef0060
:100c7c000080fa00000006000000fa00c3e8a8009b
:100c8c0000000000000000000080fa0000000600d8
:100c9c000000fa00c3e8a9000000000000000000fa
:100cac000080fa00000006000000fa00f8ff0700c0
:100cbc005b010700f0ff0700a07320006100070034
:100ccc0025a8a8000080fa00000006000000fa0029
:100cdc0000002800e00288000080fa0000000600f6
:100cec000000fa00000024000003880010c0b300cc
:100cfc0000f0b7000080fa00000006000000fa00c7
:100d0c000070ef00000000004003800061006000f4
:100d1c000000e000fcff320080002000200388006f
:100d2c000080fa00000006000200fa000040eb0010
:100d3c00004f7800400380006100600000407800a4
:100d4c000004e0000200320010c0b300004f780035
:100d5c001e4078000080fa00000006000000fa0037
:100d6c0000d0bf000080fa00000006000400fa006a
:100d7c006000b800008fbe00b00380008000eb0064
:100d8c00c000dd0000002000008fbe00a00380002a
:100d9c008000eb003e017000ae8170000200be00ce
:100dac000080fa00000006000400fa006000b800a1
:100dbc00008fbe00d00380008000eb00c000dd007f
:100dcc0000002000008fbe00c00380008000eb00fc
:100ddc003e017000ae8170000200be000080fa007f
:100dec00000006000200fa000000eb00000f780083
:100dfc0041038000100e2000008f60001e00780060
:100e0c000080fa00000006000400fa006000b80040
:100e1c00008fbe00700380008000eb00c000dd007e
:100e2c0000002000008fbe00600380008000eb00fb
:100e3c003e017000ae8170000200be000080fa001e
:100e4c00000006000200fa00000f78001e00780077
:100e5c000000e000020032009e0078003180880023
:100e6c000080fa00000006000000fa000080fa0082
:100e7c00000006000000fa00400880008000eb0033
:100e8c000080fa00000006000000fa002008800034
:100e9c008000eb000080fa00000006000000fa0061
:100eac0000022000000888000421ef0010a1270098
:100ebc0040088800e08820002b0007000a0007008b
:100ecc000080fa00000006000000fa000c00070089
:100edc000021ef000421ef000080eb0040088800a7
:100eec000080fa00000006000000fa000028a900ab
:100efc002028a80001e1a8000080fa0000000600ec
:100f0c000000fa0001e1a9002028a9000080fa00e5
:100f1c00000006000400fa00008fbe001e007800de
:100f2c00400888000080fa00000006000200fa0069
:100f3c00000f78001e0078000040780067406000c9
:100f4c000080fb00670060004400dd00024280006e
:100f5c00f1f82f0081006100010070000042880050
:100f6c000080fa00000006000200fa00000f780072
:100f7c001e0078000000e000020032009e007800a5
:100f8c00518088000080fa00000006000000fa0082
:100f9c000080fa00000006000200fa00000f780042
:100fac009e007800410888000080fa0000000600ce
:100fbc000000fa0010002300307c8800600920003b
:100fcc00407c88008c2fef0010042000507c88009f
:100fdc0010102000707c880060092000807c880044
:100fec0010042000907c880000502000d07c8800e9
:100ffc00b82fef00ba2fef00be2fef00002def003f
:10100c00a42fef00a62fef00a82fef00aa2fef00c0
:10101c00ae2fef00b02fef00b22fef002200200018
:10102c0080072000a109200053f820008049780097
:10103c0081497800824978000001eb0060042000af
:10104c007105200043f82000804978008149780020
:10105c00824978000080fa00000006000000fa00c7
:10106c00707c8000ee800a00000000000080fb0015
:10107c0000f0a7000000ea000000ea004f00de00cc
:10108c00004078000080fa00000006000000fa0022
:10109c009200070081ff07000300370000000000ea
:1010ac000100370000000000a17380000010200038
:1010bc00008060000000e000f8ff3a0000c4290046
:1010cc00010020009c000700a1738000001020008c
:1010dc00008060000000e000f2ff3200b07380007e
:1010ec0011800a00000000000004a20061406000b2
:1010fc000080fb006100600000004000b1738000c4
:10110c000110a10001007000b0738800e6ff3700e9
:10111c000000fa00b073800000800a00000000009c
:10112c000004a200614060000080fb0061006000d0
:10113c00b17380000100a10001007000b073880041
:10114c000080fa00000006000000fa00062eef00f6
:10115c00222eef003e2eef005a2eef00762eef00df
:10116c00f001200010708800d0ff2f00f070880074
:10117c000080eb00d07188000080eb00b07288001a
:10118c00c0ff2f00907388000a2eef00262eef0070
:10119c00422eef005e2eef007a2eef000c2eef00a9
:1011ac00282eef00442eef00602eef007c2eef0077
:1011bc00082eef00242eef00402eef005c2eef00e7
:1011cc00782eef00f00120000070880040382000dd
:1011dc00e0708800f00c2000c071880000c027006f
:1011ec00a072880000042000807388000080fa0040
:1011fc00000006000000fe000a07020000000000cc
:10120c00821f780012808000000011000200200074
:10121c00810019004f017800000006000000fe005c
:10122c00801f7800811f7800821f78006003800087
:10123c00801f78000a070200000000004f017800b0
:10124c00020150000201e900128088004f01780071
:10125c00cf0078004f007800000006000000fa0074
:10126c00b1428000f0f82f00008060000040a00028
:10127c00b042880001428000f0f82f00008060002e
:10128c000040a000004288000080fa000000060028
:10129c000000fa00b1428000f0f82f0000806000de
:1012ac000060a000b042880001428000f0f82f00de
:1012bc00008060000060a000004288000080fa00fe
:1012cc00000006000000fa00c3e8a80000000000bf
:1012dc00000000000080fa00000006000000fa0088
:1012ec0033ff070098ff07006ffe0700ebfe0700b7
:1012fc00f4ff0700d9ff07000080fa000000060089
:10130c000200fa00000f78009e00780041808800ef
:10131c000000fe000080fa00000006000000fa0049
:10132c00c0002100800778004002210000018800e5
:08133c000080fa000000060029
:020000040000fa
:10134400f03fb1000180b10006003500ee03090052
:1013540000000000403fb1000180b100fbff3d00f0
:101364001000b000203fb0000200350000800900ea
:0813740000000000000006006b
:020000040000fa
:10137c000c1000002000000080000000081000008d
:10138c000200000082000000ffff000000100000bf
:10139c0008000000800000000a100000020000009d
:0813ac008000000000000000b9
:020000040000fa
:0413b400ffffff0038
:020000040000fa
:02000004000af0
:04fe0000ffffff0001
:020000040000fa
:02000004000af0
:04fe2000ffffff00e1
:020000040000fa
:02000004000af0
:04fe30007affff0056
:020000040000fa
:02000004000af0
:04fe3800bdffff000b
:020000040000fa
:02000004000af0
:04fe4000f453ff0078
:020000040000fa
:02000004000af0
:04fe4800ffffff00b9
:020000040000fa
:02000004000af0
:04fe5000deffff00d2
:020000040000fa
:02000004000af0
:04fe58000000ff00a7
:020000040000fa
:02000004000af0
:04fe60000000ff009f
:020000040000fa
:02000004000af0
:04fe68000000ff0097
:020000040000fa
:02000004000af0
:04fe70000000ff008f
:020000040000fa
:02000004000af0
:04fe7800ffffff0089
:020000040000fa
:02000004000af0
:04fe8000fffcff0084
:020000040000fa
:02000004000af0
:04fe8800ffffff0079
:020000040000fa
:02000004000af0
:04feb000ffffff0051
:020000040000fa
:02000004000af0
:04fec000ffffff0041
:020000040000fa
:02000004000af0
:04fed000ffffff0031
:020000040000fa
:02000004000af0
:04fee000ffffff0021
:020000040000fa
:02000004000af0
:04fef000ffffff0011
:020000040000fa
:02000004000af0
:04fff800ffffff0008
:020000040000fa
:020000040100f9
:04300000ffffff00cf
:00000001FF
